:0400000062EF1DF09E
:10100000005468652054656D706572617475726511
:101010002069733A00252E31662043202020004E9F
:101020006F726D616C00436F6C640046697265009D
:0D103000696E66006E616E00486F7400000E
:10103E00000E0001A16F4EC0A2F04FC0A3F050C031
:10104E00A4F051C0A5F0A5BF31EF08F02FEF08F0C6
:10105E0045EF08F0010EA16FA2C001F0A3C002F08F
:10106E00A4C003F0A5C004F017EC1DF001C0A2F05F
:10107E0002C0A3F003C0A4F004C0A5F0000E00014E
:10108E00A76F000EA66FEAC091F0EBC092F0A151CF
:10109E00D8B454EF08F056EF08F06AEF08F0A151FB
:1010AE00D8A45CEF08F05EEF08F064EF08F0000ED5
:1010BE00876F2B0E866F68EF08F0000E876F2D0E70
:1010CE00866F86C0A1F0A2C001F0A3C002F0A4C03A
:1010DE0003F0A5C004F030EC1AF001040210D8A4FD
:1010EE007BEF08F07DEF08F0ACEF08F00001A151A6
:1010FE00D8B484EF08F086EF08F08FEF08F0A1C0A7
:10110E0000F19107D8A09207000EA76F010EA66FEF
:10111E00000EA625016E010EA721026E300E036E83
:10112E00DEEC1CF00001FD0E9127FF0E92234DC048
:10113E000FF0000E106E010E116E91C012F092C0E3
:10114E0013F0ACEC1BF012EF0DF0A2C001F0A3C037
:10115E0002F0A4C003F0A5C004F030EC1AF0015068
:10116E000210D8A4BDEF08F0BFEF08F0DDEF08F0D5
:10117E000001A151D8B4C6EF08F0C8EF08F0D1EFC6
:10118E0008F0A1C000F19107D8A09207000EA76F3A
:10119E00010EA66F000EA625016E010EA721026E8E
:1011AE00340E036EDEEC1CF099EF08F0000E000119
:1011BE00A86F000EA96F800EAA6F3F0EAB6F000EC8
:1011CE00906F000E8F6FA2C001F0A3C002F0A4C0FA
:1011DE0003F0A5C004F0000E056E000E066E000EA4
:1011EE00076E000E086E04EC1BF0D8B001EF09F08C
:1011FE0003EF09F0E2EF09F010EF09F093C0A8F049
:10120E0094C0A9F095C0AAF096C0ABF000018F4B28
:10121E00902BA8C028F0A9C029F0AAC02AF0ABC014
:10122E002BF0000E2C6E000E2D6E200E2E6E410E2B
:10123E002F6E73EC0FF028C093F029C094F02AC0E3
:10124E0095F02BC096F000019351A25D016E945162
:10125E00A359026E9551A459036E9651A559046E69
:10126E00DFEC1BF004BE47EF09F004500310021030
:10127E0009E1020E015CD8A047EF09F049EF09F031
:10128E0005EF09F093C041F094C042F095C043F0D1
:10129E0096C044F0A2C045F0A3C046F0A4C047F0EB
:1012AE00A5C048F0AEEC19F0D8A060EF09F062EFDF
:1012BE0009F005EF09F00001A851A25D016EA951D8
:1012CE00A359026EAA51A459036EAB51A559046ECF
:1012DE00DFEC1BF004BE81EF09F004500310021086
:1012EE0007E1020E015CD8B07FEF09F081EF09F043
:1012FE00C9EF09F0A8C0A2F0A9C0A3F0AAC0A4F03B
:10130E00ABC0A5F0E2EF09F0A8C00FF0A9C010F035
:10131E00AAC011F0ABC012F0000E136E000E146EC8
:10132E00200E156E410E166E88EC11F00FC0A8F04F
:10133E0010C0A9F011C0AAF012C0ABF000018F07C7
:10134E00D8A09007A851A25D016EA951A359026EB3
:10135E00AA51A459036EAB51A559046EDFEC1BF0D4
:10136E0004BEC7EF09F004500310021007E1020E8D
:10137E00015CD8B0C5EF09F0C7EF09F0C9EF09F06D
:10138E0081EF09F0A2C041F0A3C042F0A4C043F027
:10139E00A5C044F0A8C045F0A9C046F0AAC047F0C9
:1013AE00ABC048F0AEEC19F0D8A0E0EF09F0E2EFD8
:1013BE0009F08BEF09F052C089F089C08AF0000164
:1013CE00EDBFECEF09F0EEEF09F0F4EF09F0ECC031
:1013DE0082F0EDC083F0F8EF09F0000E836F060E79
:1013EE00826F82C08DF083C08EF08D4B8E2B660E79
:1013FE008A19D8A405EF0AF007EF0AF027EF0AF0D2
:10140E0090BF0EEF0AF00CEF0AF01AEF0AF0000E82
:10141E00A86F000EA96F800EAA6F3F0EAB6F000E65
:10142E00906F000E8F6F670E8919D8B421EF0AF0F6
:10143E0023EF0AF027EF0AF08F518D2790518E235C
:10144E00000E986F000E976FA2C099F0A3C09AF08D
:10145E00A4C09BF0A5C09CF0A8C093F0A9C094F0C6
:10146E00AAC095F0ABC096F0B8EF0AF099C00FF095
:10147E009AC010F09BC011F09CC012F0A8C013F0DF
:10148E00A9C014F0AAC015F0ABC016F088EC11F08C
:10149E000FC028F010C029F011C02AF012C02BF096
:1014AE00CFEC15F028C09DF029C09EF02AC09FF009
:1014BE002BC0A0F09DC001F09EC002F09FC003F0B3
:1014CE00A0C004F02BEC19F001C08BF002C08CF020
:1014DE0099C041F09AC042F09BC043F09CC044F0CA
:1014EE009DC02CF09EC02DF09FC02EF0A0C02FF0FE
:1014FE00A8C028F0A9C029F0AAC02AF0ABC02BF0D2
:10150E0073EC0FF028C045F029C046F02AC047F012
:10151E002BC048F059EC1CF041C099F042C09AF033
:10152E0043C09BF044C09CF0A8C00FF0A9C010F0BF
:10153E00AAC011F0ABC012F0000E136E000E146EA6
:10154E00200E156E410E166E88EC11F00FC0A8F02D
:10155E0010C0A9F011C0AAF012C0ABF00001974B59
:10156E00982B8D51975D9851800A536E8E51800A3B
:10157E005358D8A0C5EF0AF0C7EF0AF03DEF0AF0B6
:10158E00A8C028F0A9C029F0AAC02AF0ABC02BF041
:10159E00000E2C6E000E2D6EA00E2E6E400E2F6EB7
:1015AE0073EC0FF028C09DF029C09EF02AC09FF06A
:1015BE002BC0A0F099C041F09AC042F09BC043F0FE
:1015CE009CC044F09DC045F09EC046F09FC047F0C1
:1015DE00A0C048F0AEEC19F0D8B0F8EF0AF0FAEF70
:1015EE000AF005EF0BF0000E00019D6F000E9E6FCE
:1015FE00000E9F6F000EA06F2EEF0BF099C001F042
:10160E009AC002F09BC003F09CC004F09DC005F090
:10161E009EC006F09FC007F0A0C008F004EC1BF0BF
:10162E00D8A01CEF0BF01EEF0BF02EEF0BF000010D
:10163E008BB124EF0BF026EF0BF02EEF0BF0000E1C
:10164E009D6F000E9E6F000E9F6F000EA06FA2C0CA
:10165E0001F0A3C002F0A4C003F0A5C004F09DC029
:10166E0005F09EC006F09FC007F0A0C008F013EC76
:10167E000DF001C099F002C09AF003C09BF004C0B7
:10168E009CF099C041F09AC042F09BC043F09CC0C0
:10169E0044F0000E2C6E000E2D6E200E2E6E410E9E
:1016AE002F6E93C028F094C029F095C02AF096C0F2
:1016BE002BF073EC0FF028C045F029C046F02AC07D
:1016CE0047F02BC048F0AEEC19F0D8A071EF0BF03C
:1016DE0073EF0BF09CEF0BF000018F4B902B93C030
:1016EE0028F094C029F095C02AF096C02BF0000E79
:1016FE002C6E000E2D6E200E2E6E410E2F6E73EC84
:10170E000FF028C093F029C094F02AC095F02BC09A
:10171E0096F0660E00018A19D8A498EF0BF09AEF96
:10172E000BF09CEF0BF08D4B8E2B93C0A8F094C05A
:10173E00A9F095C0AAF096C0ABF08FC080F090C013
:10174E0081F0000E0001886F000E856F000E846F11
:10175E00000E986F000E976F9AEF0CF099C00FF075
:10176E009AC010F09BC011F09CC012F0A8C013F0EC
:10177E00A9C014F0AAC015F0ABC016F088EC11F099
:10178E000FC028F010C029F011C02AF012C02BF0A3
:10179E00CFEC15F028C09DF029C09EF02AC09FF016
:1017AE002BC0A0F09DC001F09EC002F09FC003F0C0
:1017BE00A0C004F02BEC19F002BEF1EF0BF00250BA
:1017CE0007E10A0E015CD8B0EFEF0BF0F1EF0BF072
:1017DE0001EF0CF09DC001F09EC002F09FC003F01F
:1017EE00A0C004F02BEC19F001C08BF002C08CF0FD
:1017FE0006EF0CF0000E00018C6F090E8B6F0001CE
:10180E008851D8A40DEF0CF00FEF0CF037EF0CF061
:10181E0081BF16EF0CF014EF0CF037EF0CF0000E4A
:10182E00A625D96E010EA721DA6E2E0EDF6EA64BFF
:10183E00A72B9107D8A09207010E886F37EF0CF0F7
:10184E00000EA625D96E010EA721DA6E300EDF6EC0
:10185E00A64BA72B9107D8A092078407D8A085077F
:10186E0084518511D8A43EEF0CF040EF0CF027EF19
:10187E000CF0000EA625D96E010EA721DA6E8B5143
:10188E00300FDF6EA64BA72B9107D8A0920799C0F9
:10189E0041F09AC042F09BC043F09CC044F09DC002
:1018AE002CF09EC02DF09FC02EF0A0C02FF0A8C02F
:1018BE0028F0A9C029F0AAC02AF0ABC02BF073EC17
:1018CE000FF028C045F029C046F02AC047F02BC0C3
:1018DE0048F059EC1CF041C099F042C09AF043C058
:1018EE009BF044C09CF0A8C00FF0A9C010F0AAC095
:1018FE0011F0ABC012F0000E136E000E146E200E1F
:10190E00156E410E166E88EC11F00FC0A8F010C0C7
:10191E00A9F011C0AAF012C0ABF000018007D8A048
:10192E008107974B982B8D51975D9851800A536E76
:10193E008E51800A5358D8B0A7EF0CF0A9EF0CF0D7
:10194E00B7EF0CF0A7BFB5EF0CF0A75109E14B0EA6
:10195E00A65DD8A0B5EF0CF0B7EF0CF0B5EF0BF01D
:10196E00000E986F4F0E976F000E9725D96E010ED1
:10197E009821DA6EDF6A000E536E010E546EA65178
:10198E00535EA751545A97515324016E98515420C7
:10199E00026E000E036E010E046EA6C005F0A7C007
:1019AE0006F00AEC1CF00001A651975DA66FA75138
:1019BE009859A76FA151D8A4E7EF0CF0EAEF0CF0FD
:1019CE00010EEBEF0CF0000E976F986BA151D8B48F
:1019DE00F3EF0CF0F5EF0CF000EF0DF0A607D8A02A
:1019EE00A707000EA625D96E010EA721DA6EA1C09B
:1019FE00DFFF9751915F9851925B4DC00FF0000E33
:101A0E00A625106E010EA721116E91C012F092C084
:101A1E0013F0ACEC1BF012000450800B0D6E045052
:101A2E0004240F6E03AE1EEF0DF020EF0DF021EF2C
:101A3E000DF00F800F50D8B427EF0DF029EF0DF0F9
:101A4E003EEF0DF00F28D8A42FEF0DF031EF0DF073
:101A5E0039EF0DF0000E016E000E026E000E036ED9
:101A6E00000E046E038E000E046E46EF0DF0000E97
:101A7E00016E000E026E000E036E000E046E085014
:101A8E00800B0E6E0D500E18D8B450EF0DF052EFB5
:101A9E000DF053EF0DF00D8C085008240E6E07AEAE
:101AAE005BEF0DF05DEF0DF05EEF0DF00E800E5062
:101ABE00D8B464EF0DF066EF0DF07BEF0DF00E284D
:101ACE00D8A46CEF0DF06EEF0DF076EF0DF0000E6A
:101ADE00056E000E066E000E076E000E086E078E67
:101AEE00000E086E83EF0DF0000E056E000E066EF2
:101AFE00000E076E000E086E0F500E5CD8B08AEF07
:101B0E000DF08CEF0DF0B3EF0DF00DAC91EF0DF07D
:101B1E0093EF0DF095EF0DF0800E0D1A0FC010F033
:101B2E000EC00FF010C00EF001C010F005C001F095
:101B3E0010C005F002C010F006C002F010C006F092
:101B4E0003C010F007C003F010C007F004C010F07F
:101B5E0008C004F010C008F0000E106E0F500EC03A
:101B6E0009F00A6A095E000E0A5A0ABEC8EF0DF0A5
:101B7E000A5009E11A0E095CD8A0C8EF0DF0CAEFA1
:101B8E000DF001EF0EF00150021003100410D8A456
:101B9E00D3EF0DF0D6EF0DF0010ED7EF0DF0000ED6
:101BAE00106E000E016E000E026E000E036E000E21
:101BBE00046E0EC00FF00AEF0EF010A0E9EF0DF05C
:101BCE00EBEF0DF0F1EF0DF0D89010300109106E23
:101BDE00F3EF0DF0D890103201A0F8EF0DF0FAEF00
:101BEE000DF0FBEF0DF0108E04340432033202328E
:101BFE0001320F2A0E500F5CD8A008EF0EF00AEF3C
:101C0E000EF0E4EF0DF00DBC0FEF0EF011EF0EF035
:101C1E0051EF0EF00F50D8A417EF0EF019EF0EF093
:101C2E0023EF0EF0000E016E000E026E000E036E1C
:101C3E00000E046E72EF0FF00550012606500222C0
:101C4E00075003220850042204A030EF0EF032EFAA
:101C5E000EF0DEEF0EF010A037EF0EF039EF0EF0B3
:101C6E003FEF0EF0D89010300109106E41EF0EF0DC
:101C7E00D890103201A046EF0EF048EF0EF049EF6B
:101C8E000EF0108E043404320332023201320F2A67
:101C9E00DEEF0EF00550015C065002580750035857
:101CAE000450800A096E0850800A0958D8B062EFB5
:101CBE000EF064EF0EF08FEF0EF00150055C096E22
:101CCE00025006580A6E035007580B6E04500858FF
:101CDE000C6EFF0E0924016EFF0E0A20026EFF0E1F
:101CEE000B20036EFF0E0C20046E800E0D1A106C6E
:101CFE001050D8A485EF0EF087EF0EF097EF0EF090
:101D0E00010E0126000E02220322042297EF0EF08E
:101D1E000550015E0650025A0750035A0850045AE5
:101D2E000150021003100410D8A4A0EF0EF0A2EF81
:101D3E000EF0D7EF0EF01050D8A4A8EF0EF0AAEFC9
:101D4E000EF0D7EF0EF0000E016E000E026E000EBA
:101D5E00036E000E046E72EF0FF0D890013602364D
:101D6E000336043610AEBEEF0EF0C0EF0EF0C1EF2C
:101D7E000EF0018010A0C6EF0EF0C8EF0EF0CCEF03
:101D8E000EF0D8801036CEEF0EF0D89010360F50E1
:101D9E00D8B4D4EF0EF0D6EF0EF0D7EF0EF00F064C
:101DAE0003AEDCEF0EF0DEEF0EF0B4EF0EF0000E31
:101DBE000E6E10AEE5EF0EF0E7EF0EF0FFEF0EF049
:101DCE0010C009F07F0E0916D8B4F0EF0EF0F2EF46
:101DDE000EF0F6EF0EF0010E0E6EFFEF0EF001A0FC
:101DEE00FBEF0EF0FDEF0EF0FFEF0EF0F2EF0EF048
:101DFE000E50D8B405EF0FF007EF0FF032EF0FF0E3
:101E0E00010E0126000E02220322042204A012EF6C
:101E1E000FF014EF0FF032EF0FF001C009F002C017
:101E2E000AF003C00BF004C00CF00C340C320B3271
:101E3E000A32093209C001F00AC002F00BC003F0E9
:101E4E000CC004F00F28D8B42FEF0FF031EF0FF0C5
:101E5E0032EF0FF00F2A0F28D8B438EF0FF03AEF09
:101E6E000FF042EF0FF00F50D8A440EF0FF042EFFB
:101E7E000FF054EF0FF0000E016E000E026E000E0A
:101E8E00036E000E046E0F50D8A450EF0FF052EFF9
:101E9E000FF054EF0FF0000E0D6E0FA059EF0FF074
:101EAE005BEF0FF05EEF0FF0038E5FEF0FF0039E10
:101EBE00D8900F30046E0DAE67EF0FF069EF0FF094
:101ECE006AEF0FF0048E01C001F002C002F003C0F1
:101EDE0003F004C004F012002B50800B346E2B5014
:101EEE002B243A6E2AAE7EEF0FF080EF0FF081EFCB
:101EFE000FF03A803A50D8B487EF0FF089EF0FF019
:101F0E009CEF0FF03A28D8A48FEF0FF091EF0FF05F
:101F1E0099EF0FF0000E286E000E296E000E2A6E3D
:101F2E00000E2B6E2A8EA4EF0FF0000E286E000E00
:101F3E00296E000E2A6E000E2B6E2F50800B341A57
:101F4E002F502F24356E2EAEAFEF0FF0B1EF0FF0F6
:101F5E00B2EF0FF035803550D8B4B8EF0FF0BAEFBE
:101F6E000FF0CDEF0FF03528D8A4C0EF0FF0C2EF71
:101F7E000FF0CAEF0FF0000E2C6E000E2D6E000E3D
:101F8E002E6E000E2F6E2E8ED5EF0FF0000E2C6ED5
:101F9E00000E2D6E000E2E6E000E2F6E3550D8B424
:101FAE00DBEF0FF0DDEF0FF0E5EF0FF03A50D8A4B6
:101FBE00E3EF0FF0E5EF0FF0EFEF0FF0000E286EEE
:101FCE00000E296E000E2A6E000E2B6E87EF11F09A
:101FDE002E502802F3CF3FF0F4CF40F03F50366E34
:101FEE00376A386A396A40503B6E3C6A3D6A3E6ACF
:101FFE002D502902F3CF3FF0F4CF40F03F5036265C
:10200E00000E37223822392240503B26000E3C2249
:10201E003D223E222C502A02F3CF3FF0F4CF40F067
:10202E003F503626000E37223822392240503B26AA
:10203E00000E3C223D223E2238C039F037C038F027
:10204E0036C037F0366A2C502902F3CF3FF0F4CF6A
:10205E0040F03F50362640503722000E3822000EF8
:10206E0039222D502802F3CF3FF0F4CF40F03F50ED
:10207E00362640503722000E3822000E392238C044
:10208E0039F037C038F036C037F0366A2C50280297
:10209E00F3CF3FF0F4CF40F03F503626405037227A
:1020AE00000E3822000E39222E502902F3CF3FF0B7
:1020BE00F4CF40F03F503B2640503C22000E3D22D4
:1020CE00000E3E222D502A02F3CF3FF0F4CF40F007
:1020DE003F503B2640503C22000E3D22000E3E2239
:1020EE002E502A02F3CF3FF0F4CF40F03F50306E27
:1020FE004050316E326A336A32C033F031C032F042
:10210E0030C031F0306A30503B2631503C223250D4
:10211E003D2233503E2236C030F037C031F038C049
:10212E0032F039C033F0190EA2EF10F0D8903332DE
:10213E00323231323032E82E9DEF10F030503B26E5
:10214E0031503C2232503D2233503E2238C039F0BD
:10215E0037C038F036C037F0366A35503AC030F0F6
:10216E00316A3026000E3122820E30243F6EFF0E71
:10217E003120406ED8EF10F0D8903B363C363D36CD
:10218E003E3639AECDEF10F0CFEF10F0D0EF10F0AD
:10219E003B80D89036363736383639363F06D8A09B
:1021AE0040063DAEDDEF10F0DFEF10F0C3EF10F0A4
:1021BE00000E356E39AEE6EF10F0E8EF10F00CEFD2
:1021CE0011F0FF0E3614306EFF0E3714316EFF0E07
:1021DE003814326E7F0E3914336E30503110321087
:1021EE003310D8B4FDEF10F0FFEF10F003EF11F045
:1021FE00010E356E0CEF11F03BA008EF11F00AEF57
:10220E0011F00CEF11F0FFEF10F03550D8B412EFC3
:10221E0011F014EF11F038EF11F0010E3B26000E05
:10222E003C223D223E223EA01FEF11F021EF11F085
:10223E0038EF11F03BC030F03CC031F03DC032F011
:10224E003EC033F03334333232323132303230C07A
:10225E003BF031C03CF032C03DF033C03EF03F4A5F
:10226E00402A40BE43EF11F0405008E13F28D8A06D
:10227E0043EF11F045EF11F04FEF11F0000E3B6EF2
:10228E00000E3C6E800E3D6E7F0E3E6E7DEF11F0A9
:10229E0040BE5CEF11F0405006E13F04D8B05AEF5B
:1022AE0011F05CEF11F068EF11F0000E3B6E000EB6
:1022BE003C6E000E3D6E000E3E6E000E346E7DEFD7
:1022CE0011F03FC03AF0FF0E3B16FF0E3C167F0E8C
:1022DE003D16000E3E163AA077EF11F079EF11F091
:1022EE007AEF11F03D8ED8903A303E6E34503E1259
:1022FE003BC028F03CC029F03DC02AF03EC02BF078
:10230E0012001250800B1F6E12501224266E11AE48
:10231E0093EF11F095EF11F096EF11F02680265005
:10232E00D8B49CEF11F09EEF11F0B3EF11F0262808
:10233E00D8A4A4EF11F0A6EF11F0AEEF11F0000E3D
:10234E000F6E000E106E000E116E000E126E118EBC
:10235E00000E126EBBEF11F0000E0F6E000E106E1F
:10236E00000E116E000E126E1650800B1F1A1650B4
:10237E001624276E15AEC6EF11F0C8EF11F0C9EF97
:10238E0011F027802750D8B4CFEF11F0D1EF11F014
:10239E00E6EF11F02728D8A4D7EF11F0D9EF11F0FE
:1023AE00E1EF11F0000E136E000E146E000E156E9E
:1023BE00000E166E158E000E166EEEEF11F0000E5C
:1023CE00136E000E146E000E156E000E166E135068
:1023DE00141015101610D8A4F7EF11F0F9EF11F034
:1023EE0011EF12F0000E0F6E000E106E000E116E39
:1023FE00000E126E800E11127F0E12121F5012124C
:10240E000FC00FF010C010F011C011F012C012F07A
:10241E0054EF13F02650D8A417EF12F019EF12F064
:10242E0023EF12F0000E0F6E000E106E000E116EE6
:10243E00000E126E54EF13F0275026C017F0186AD4
:10244E00175E000E185A7F0E1724206E000E1820ED
:10245E00216E0FC01BF010C01CF011C01DF012C079
:10246E001EF0000E0F6E000E106E000E116E000E9E
:10247E00126E000E226E000E236E000E246E000EE3
:10248E00256E000E276E84EF12F02750D8B452EF4F
:10249E0012F054EF12F06BEF12F0D8901B361C3680
:1024AE001D361E36D8900F3610361136123625AE22
:1024BE0063EF12F065EF12F066EF12F00F80D89016
:1024CE00223623362436253613501B5C14501C58E6
:1024DE0015501D5816501E58D8A078EF12F07AEFEE
:1024EE0012F083EF12F0258C13501B5E14501C5A01
:1024FE0015501D5A16501E5A272A190E27648AEF98
:10250E0012F08CEF12F04CEF12F01B501C101D103D
:10251E001E10D8B495EF12F097EF12F0AFEF12F045
:10252E002280AFEF12F0D8900F36103611361236D9
:10253E0025AEA4EF12F0A6EF12F0A7EF12F00F8067
:10254E00D89022362336243625362006D8A02106EA
:10255E0011AEB4EF12F0B6EF12F09AEF12F0000EC9
:10256E00276E25AEBDEF12F0BFEF12F0E3EF12F0C3
:10257E00FF0E2214176EFF0E2314186EFF0E241476
:10258E00196E7F0E25141A6E1750181019101A1086
:10259E00D8B4D4EF12F0D6EF12F0DAEF12F0010E3B
:1025AE00276EE3EF12F00FA0DFEF12F0E1EF12F063
:1025BE00E3EF12F0D6EF12F02750D8B4E9EF12F095
:1025CE00EBEF12F00FEF13F0010E0F26000E10229C
:1025DE001122122212A0F6EF12F0F8EF12F00FEF06
:1025EE0013F00FC017F010C018F011C019F012C080
:1025FE001AF01A341A3219321832173217C00FF075
:10260E0018C010F019C011F01AC012F0204A212A79
:10261E0021BE1AEF13F0215008E12028D8A01AEF9E
:10262E0013F01CEF13F027EF13F0000E216E20684D
:10263E00000E0F6E000E106E000E116E000E126E5A
:10264E0021BE34EF13F0215006E12004D8B032EF52
:10265E0013F034EF13F042EF13F0000E216E000E64
:10266E00206E000E0F6E000E106E000E116E000E1C
:10267E00126E000E1F6E20C026F026A049EF13F03A
:10268E004BEF13F04EEF13F0118E4FEF13F0119E30
:10269E00D8902630126E05EF12F01200000E0001D7
:1026AE00DE6F000EDF6F000EE06F000EE16F73EC59
:1026BE001DF09DEC1CF0010E9CEC18F00C0E9CEC29
:1026CE0018F0000E33EC1DF001C0DCF002C0DDF09E
:1026DE00000E2C6E000E2D6EA00E2E6E400E2F6E66
:1026EE00000E136EC00E146E7F0E156E440E166E17
:1026FE00DCC001F0DDC002F0036A046A000EC2EC19
:10270E0017F001C00FF002C010F003C011F004C0AA
:10271E0012F088EC11F00FC028F010C029F011C093
:10272E002AF012C02BF073EC0FF028C0D8F029C09D
:10273E00D9F02AC0DAF02BC0DBF0D8C028F0D9C00F
:10274E0029F0DAC02AF0DBC02BF0000E2C6E000E42
:10275E002D6EC80E2E6E420E2F6E73EC0FF028C02B
:10276E00DEF029C0DFF02AC0E0F02BC0E1F0DEC0C1
:10277E0041F0DFC042F0E0C043F0E1C044F0000E93
:10278E00456E000E466E700E476E410E486EAEECF4
:10279E0019F0D8B0D5EF13F0D7EF13F0E0EF13F038
:1027AE00C80E016E026A260E036EDEEC1CF05DEFA3
:1027BE0014F0DEC041F0DFC042F0E0C043F0E1C0F3
:1027CE0044F0000E456E000E466E700E476E410EC2
:1027DE00486EAEEC19F0D8A0F7EF13F0F9EF13F046
:1027EE001BEF14F0000E416E000E426ED80E436EBB
:1027FE00410E446EDEC045F0DFC046F0E0C047F04B
:10280E00E1C048F0AEEC19F0D8A010EF14F012EFC2
:10281E0014F01BEF14F0C80E016E026A1F0E036E49
:10282E00DEEC1CF05DEF14F0000E416E000E426EF9
:10283E00D80E436E410E446EDEC045F0DFC046F04A
:10284E00E0C047F0E1C048F0AEEC19F0D8B032EF7E
:10285E0014F034EF14F056EF14F0000E416E000E2B
:10286E00426EF00E436E410E446EDEC045F0DFC088
:10287E0046F0E0C047F0E1C048F0AEEC19F0D8A049
:10288E004BEF14F04DEF14F056EF14F0C80E016E2E
:10289E00026A380E036EDEEC1CF05DEF14F0C80E0B
:1028AE00016E026A2B0E036EDEEC1CF0010E9CEC28
:1028BE0018F0010E0A6E010E0B6E0B50D8A4100EFE
:1028CE000C6E010E94EC14F0B80E0001B26F150EE2
:1028DE00B36FDEC0B4F0DFC0B5F0E0C0B6F0E1C05B
:1028EE00B7F0FBEC1CF0010E0A6EB80E0B6E0C6A04
:1028FE00020E94EC14F0080E0A6EC80E0B6E0C6AE3
:10290E00040E94EC14F0030E026EE80E016E32EC1F
:10291E001CF068EF13F000EF00F00F6E0F50400D3B
:10292E00F3500A24BF0F106E105080099CEC18F063
:10293E00B5EF15F08A888A8A0BC0F6FF0CC0F7FF38
:10294E00000EF86E0F0EF76403D00800F55005D098
:10295E00F6CFE1FFF7CFE2FFE7500D6E000E0DBE92
:10296E00010E0D6E0D30D8B0BFEF14F0C2EF14F0A3
:10297E008A86C3EF14F08A960BC0F6FF0CC0F7FFE1
:10298E00000EF86E0F0EF76403D00800F55005D058
:10299E00F6CFE1FFF7CFE2FFE7500D6E060E0E6E9B
:1029AE00D8900D320E2ED7EF14F00D30D8B0E2EFD6
:1029BE0014F0E5EF14F08A84E6EF14F08A940BC05D
:1029CE00F6FF0CC0F7FF000EF86E0F0EF76403D083
:1029DE000800F55005D0F6CFE1FFF7CFE2FFE75044
:1029EE000D6E050E0E6ED8900D320E2EFAEF14F0FF
:1029FE000D30D8B005EF15F008EF15F08A8209EF0B
:102A0E0015F08A920BC0F6FF0CC0F7FF000EF86EA1
:102A1E000F0EF76403D00800F55005D0F6CFE1FF96
:102A2E00F7CFE2FFE7500D6E0D3A0F0E0D160D307B
:102A3E00D8B024EF15F027EF15F08A8028EF15F0A7
:102A4E008A908A9A000E026E010E016E32EC1CF014
:102A5E008A8A0BC0F6FF0CC0F7FF000EF86E0F0E41
:102A6E00F76403D00800F55005D0F6CFE1FFF7CF9D
:102A7E00E2FFE7500D6ED8900D32D8900D32D890FF
:102A8E000D320D30D8B04EEF15F051EF15F08A869D
:102A9E0052EF15F08A960BC0F6FF0CC0F7FF000E32
:102AAE00F86E0F0EF76403D00800F55005D0F6CF80
:102ABE00E1FFF7CFE2FFE7500D6ED8900D32D890C0
:102ACE000D320D30D8B06EEF15F071EF15F08A841F
:102ADE0072EF15F08A940BC0F6FF0CC0F7FF000ED4
:102AEE00F86E0F0EF76403D00800F55005D0F6CF40
:102AFE00E1FFF7CFE2FFE7500D6ED8900D320D30AB
:102B0E00D8B08CEF15F08FEF15F08A8290EF15F09C
:102B1E008A920BC0F6FF0CC0F7FF000EF86E0F0E78
:102B2E00F76403D00800F55005D0F6CFE1FFF7CFDC
:102B3E00E2FFE7500D6E0D30D8B0A8EF15F0ABEFF9
:102B4E0015F08A80ACEF15F08A908A9A000E026E0C
:102B5E00010E016E32EC1CF00B4A0C2A0BC0F6FF74
:102B6E000CC0F7FF000EF86E0F0EF76403D00800CE
:102B7E00F55005D0F6CFE1FFF7CFE2FFE7500009A1
:102B8E00D8A4CCEF15F0CEEF15F0A1EF14F0120093
:102B9E00E2C038F0E3C039F0E4C03AF0E5C03BF0F3
:102BAE0028C038F029C039F02AC03AF02BC03BF0CB
:102BBE00810E2C6EFF0E2D6E38C02EF039C02FF008
:102BCE003AC030F03BC031F0180EF3EF15F0D8904C
:102BDE00313230322F322E32E82EEEEF15F02E50EB
:102BEE002C24366E000E2D20376E37BE08EF16F0F1
:102BFE00375009E1170E365CD8A008EF16F00AEF31
:102C0E0016F014EF16F028C028F029C029F02AC0BB
:102C1E002AF02BC02BF0D7EF16F037BE19EF16F0B7
:102C2E001BEF16F08BEF16F036C02CF0FF0E2D6E4C
:102C3E00FF0E2E6E7F0E2F6E000E306E2C662AEF5C
:102C4E0016F032EF16F0303430322F322E322D3263
:102C5E002C2E25EF16F02DC032F02EC033F02FC0E3
:102C6E0034F030C035F0325038142C6E33503914E5
:102C7E002D6E34503A142E6E35503B142F6E2C5050
:102C8E002D102E102F10D8A44FEF16F051EF16F076
:102C9E0053EF16F00AEF16F038C02CF039C02DF0B5
:102CAE003AC02EF03BC02FF0200E63EF16F0D890F6
:102CBE002F322E322D322C32E82E5EEF16F02C50A3
:102CCE002D102E102F10D8B46FEF16F071EF16F0E6
:102CDE0079EF16F0325038263350392234503A22DA
:102CEE0035503B22321C2C6E331C2D6E341C2E6E36
:102CFE00351C2F6E2C5038162D5039162E503A1674
:102D0E002F503B16CFEF16F038C02CF039C02DF0F7
:102D1E003AC02EF03BC02FF0200E9BEF16F0D8904D
:102D2E002F322E322D322C32E82E96EF16F02C50FA
:102D3E002D102E102F10D8A4A7EF16F0A9EF16F015
:102D4E00B3EF16F0000E386E000E396E000E3A6EAE
:102D5E00000E3B6ECFEF16F0D89038342C6E39340F
:102D6E002D6E3A342E6E3B342F6E2C502D102E10AD
:102D7E002F10D8B4C5EF16F0C7EF16F0CFEF16F040
:102D8E00000E386E000E396E800E3A6EBF0E3B6E20
:102D9E0038C028F039C029F03AC02AF03BC02BF0D9
:102DAE0012000001AD51D96EDA6ADFCFF6FF100EB8
:102DBE00F76E0800F550250AD8A4E8EF16F0EAEFF2
:102DCE0016F0B0EF17F0AD51D96EDA6ADF2A000EA9
:102DDE00EB6F000EEA6FEAC0EEF0EC69ED69AD51F3
:102DEE00D96EDA6ADFCFF6FF100EF76E0800F550D7
:102DFE002E0AD8A405EF17F007EF17F015EF17F00E
:102E0E00AD51D96EDA6ADF2AADC007F0AEC008F058
:102E1E0059EC1BF007C0ECF008C0EDF00001AD510D
:102E2E00D96EDA6ADF505B6E5BC0F6FF100EF76E7E
:102E3E000800F5CF5AF02FEF17F05B2A3EEF17F090
:102E4E006C0E5A6E3EEF17F0000E5A6E3EEF17F0F4
:102E5E005A504C0AD8B424EF17F02A0AD8B427EFE8
:102E6E0017F00A0AD8B424EF17F02BEF17F05BC057
:102E7E00F6FF100EF76E0800F550660AD8A44AEF5A
:102E8E0017F04CEF17F0A9EF17F076EF17F0AE51E1
:102E9E00D96EDA6ADFCF55F0040EDF265550D96EA3
:102EAE00DA6ADECF56F0DECF57F0DECF58F0DECF47
:102EBE0059F081EF17F0AE51D96EDA6ADFCF55F0C7
:102ECE00040EDF265550D96EDA6ADECF56F0DECF0D
:102EDE0057F0DECF58F0DECF59F081EF17F05A5091
:102EEE004C0AD8B462EF17F0200AD8B44EEF17F0A0
:102EFE0081EF17F0AD51D96EDA6A5B28DF6E9DEF68
:102F0E0017F0ACC04DF056C04EF057C04FF058C041
:102F1E0050F059C051F05BC0F6FF100EF76E08006E
:102F2E00F5CF52F01FEC08F0C1EF17F05BC0F6FFC3
:102F3E00100EF76E0800F550660AD8B488EF17F039
:102F4E00A9EF17F00001AD51D96EDA6ADF2AC1EF91
:102F5E0017F0AD51D96EDA6ADFCFF6FF100EF76EAD
:102F6E000800F550016E026AACC003F0AFEC1AF027
:102F7E00A9EF17F01200096E0950D8B4C9EF17F077
:102F8E00CBEF17F0EDEF17F004BED2EF17F0D0EF46
:102F9E0017F0EDEF17F001C005F002C006F003C008
:102FAE0007F004C008F0051E061E071E081E052A9F
:102FBE00000E06220722082205C00BF006C00CF0F8
:102FCE0007C00DF008C00EF0F5EF17F001C00BF0C2
:102FDE0002C00CF003C00DF004C00EF00150021040
:102FEE0003100410D8A4FEEF17F000EF18F00AEF4C
:102FFE0018F0000E016E000E026E000E036E000E33
:10300E00046E9BEF18F0960E0A6E14EF18F00A2A53
:10301E00D8900E320D320C320B32000E0B14056EA0
:10302E00000E0C14066E000E0D14076EFE0E0E141E
:10303E00086E0550061007100810D8A429EF18F0D6
:10304E002BEF18F00EEF18F039EF18F00A2A010ED8
:10305E000B26000E0C220D220E22D8900E320D32AF
:10306E000C320B32000E0B14056E000E0C14066E95
:10307E00000E0D14076EFF0E0E14086E055006108E
:10308E0007100810D8A44EEF18F050EF18F02DEFDF
:10309E0018F058EF18F00A06D8900B360C360D368D
:1030AE000E360DBE5DEF18F05FEF18F067EF18F0FB
:1030BE00020E0A6065EF18F067EF18F052EF18F085
:1030CE000AB06CEF18F06EEF18F06FEF18F00D9E5F
:1030DE00D8900A320AC005F0066A076A086A05C067
:1030EE0008F0076A066A056A05500B1206500C12A4
:1030FE0007500D1208500E120950D8B489EF18F06F
:10310E008BEF18F093EF18F004BE92EF18F090EFDB
:10311E0018F093EF18F00E8E0BC001F00CC002F0F9
:10312E000DC003F00EC004F01200096E8A988A8A50
:10313E00076A09AE01D0072A0730D8B0A9EF18F0F8
:10314E00ACEF18F08A86ADEF18F08A9609C007F03A
:10315E00060E086ED8900732082EB1EF18F0073021
:10316E00D8B0BCEF18F0BFEF18F08A84C0EF18F09B
:10317E008A9409C007F0050E086ED8900732082E03
:10318E00C4EF18F00730D8B0CFEF18F0D2EF18F028
:10319E008A82D3EF18F08A9209C007F0073A0F0E11
:1031AE0007160730D8B0DEEF18F0E1EF18F08A807E
:1031BE00E2EF18F08A908A9A000E026E010E016EEE
:1031CE0032EC1CF08A8A09C007F0D8900732D890EA
:1031DE000732D89007320730D8B0F8EF18F0FBEF6F
:1031EE0018F08A86FCEF18F08A9609C007F0D8907E
:1031FE000732D89007320730D8B008EF19F00BEF2E
:10320E0019F08A840CEF19F08A9409C007F0D8904F
:10321E0007320730D8B016EF19F019EF19F08A827D
:10322E001AEF19F08A9209B01FEF19F022EF19F078
:10323E008A8023EF19F08A908A9A000E026E010E90
:10324E00016E32EC1CF01200033404340A6E0A5084
:10325E00D8A434EF19F036EF19F040EF19F0000E44
:10326E00016E000E026E000E036E000E046EADEFC8
:10327E0019F001C005F002C006F003C007F004C04B
:10328E0008F0200E50EF19F0D890083207320632AF
:10329E000532E82E4BEF19F00550096E038EFF0E26
:1032AE000116FF0E0216FF0E0316000E0416960EE2
:1032BE000A5E0ABE67EF19F065EF19F07DEF19F09F
:1032CE000A50800A970FD8B06FEF19F071EF19F00E
:1032DE0073EF19F036EF19F0D89004320332023240
:1032EE0001320A3E73EF19F095EF19F01F0E0A64C2
:1032FE0083EF19F085EF19F08DEF19F036EF19F015
:10330E00D89001360236033604360A060A50D8A47F
:10331E0093EF19F095EF19F087EF19F00950D8B423
:10332E009BEF19F09DEF19F0A5EF19F0041E031E87
:10333E00021E016C000E02220322042201C001F0C3
:10334E0002C002F003C003F004C004F01200000E2D
:10335E004114496E000E42144A6E800E43144B6E99
:10336E007F0E44144C6E49504A104B104C10D8A48A
:10337E00C3EF19F0C5EF19F0CDEF19F0000E416E45
:10338E00000E426E000E436E000E446E000E45148B
:10339E00496E000E46144A6E800E47144B6E7F0E19
:1033AE0048144C6E49504A104B104C10D8A4E2EF02
:1033BE0019F0E4EF19F0ECEF19F0000E456E000E67
:1033CE00466E000E476E000E486E44AEF1EF19F0D9
:1033DE00F3EF19F0FCEF19F0416C421ED8B0422AFF
:1033EE00431ED8B0432A800E445648AE01EF1AF061
:1033FE0003EF1AF00CEF1AF0456C461ED8B0462AB1
:10340E00471ED8B0472A800E4856000E411A000EAD
:10341E00421A000E431A800E441A000E451A000E70
:10342E00461A000E471A800E481A4550415C465007
:10343E0042584750435848504458D8B029EF1AF0D4
:10344E002BEF1AF02EEF1AF0D8902FEF1AF0D8803B
:10345E001200E6C00BF0E7C00CF0E8C00DF0E9C0BA
:10346E000EF001C00BF002C00CF003C00DF004C052
:10347E000EF00BC005F00CC006F00DC007F00EC02C
:10348E0008F0180E50EF1AF0D890083207320632B4
:10349E000532E82E4BEF1AF00550096E0A6A0950F4
:1034AE000A10D8A45DEF1AF05FEF1AF07FEF1AF052
:1034BE00D8900B34056E0C34066E0D34076E0E3438
:1034CE00086E0550061007100810D8A471EF1AF0F8
:1034DE0073EF1AF079EF1AF0000E026E020E016E03
:1034EE00AEEF1AF0000E026E030E016EAEEF1AF082
:1034FE0009280A10D8A486EF1AF088EF1AF0AAEF5E
:10350E001AF00BC005F00CC006F00DC007F00EC08F
:10351E0008F0090ED8900536063607360836E82E1E
:10352E0091EF1AF00550061007100810D8B4A2EF4C
:10353E001AF0A5EF1AF0010EA6EF1AF0000E016EAA
:10354E00026AAEEF1AF0000E026E040E016E120049
:10355E000350D8B4B5EF1AF0B7EF1AF0BFEF1AF068
:10356E000350D8A4BDEF1AF0BFEF1AF0C4EF1AF053
:10357E00015078EC1DF003EF1BF00350D96EDA6AA0
:10358E000A0ED926DE50DE10D8B4D0EF1AF0D2EFE4
:10359E001AF0EBEF1AF00350D96EDA6A0A0ED9263A
:1035AE000350E16EE26A030EE126DE50E65CE65061
:1035BE00800A086EDE50800A0858D8B0E9EF1AF07B
:1035CE00EBEF1AF003EF1BF00350D96EDA6A030E1D
:1035DE00D926DF50046E0350D96EDA6ADF50042408
:1035EE00D96EDA6A01C0DFFF0350D96EDA6A030EB4
:1035FE00D926DE2A000EDD221200000E0114096EFD
:10360E00000E02140A6E800E03140B6E7F0E04144D
:10361E000C6E09500A100B100C10D8A419EF1BF0E9
:10362E001BEF1BF023EF1BF0000E016E000E026E5F
:10363E00000E036E000E046E000E0514096E000ED1
:10364E0006140A6E800E07140B6E7F0E08140C6E95
:10365E0009500A100B100C10D8A438EF1BF03AEFDB
:10366E001BF042EF1BF0000E056E000E066E000EF4
:10367E00076E000E086E055001180FE10650021875
:10368E000CE10750031809E108500418D8B452EFA2
:10369E001BF054EF1BF057EF1BF0D89058EF1BF0B8
:1036AE00D8801200000E0B6E000E0A6E0750D96EF7
:1036BE00DA6ADFCFF6FF100EF76E0800F5502A0A11
:1036CE00D8A46CEF1BF06EEF1BF094EF1BF00750BD
:1036DE00D96EDA6ADF2A0850D96EDA6A020EDF2650
:1036EE00DF5CD96EDA6ADECF0AF0DECF0BF0A7EF21
:1036FE001BF00AC001F00BC002F0000E046E0A0EA1
:10370E00036E4FEC1DF0095001240A6E000E0220CC
:10371E000B6E0750D96EDA6ADF2A0750D96EDA6A55
:10372E00DFCFF6FF100EF76E0800F550D00F096EC2
:10373E00090E0964A5EF1BF0A7EF1BF080EF1BF03D
:10374E000AC007F00BC008F0120013BEB3EF1BF057
:10375E00B1EF1BF0B7EF1BF0000E136E000E126EE2
:10376E00000E166E000E156EC7EF1BF0000E026EE9
:10377E00200E016E0FC003F0AFEC1AF0154A162A98
:10378E001250155C1650800A146E1350800A14588D
:10379E00D8A0D4EF1BF0D6EF1BF0BDEF1BF010C07E
:1037AE0009F011C00AF00FC00BF0BEEC1CF01200B5
:1037BE0004BEE4EF1BF0E6EF1BF0F0EF1BF001C0D0
:1037CE0001F002C002F003C003F004C004F009EFE0
:1037DE001CF001C005F002C006F003C007F004C0E3
:1037EE0008F0051E061E071E081E052A000E0622DC
:1037FE000722082205C001F006C002F007C003F040
:10380E0008C004F0120003C00AF004C00BF001C09F
:10381E0008F002C009F024EF1CF00AC0D9FF0BC05B
:10382E00DAFFDF50076E0A4A0B2A08C0D9FF09C01B
:10383E00DAFF07C0DFFF084A092A0506D8A00606E8
:10384E00052806E10628D8A42FEF1CF031EF1CF056
:10385E0014EF1CF01200000E046E000E036E4DEFFE
:10386E001CF0000E066E000E056E00D000D0054A4C
:10387E00062AE80E055C030E0658D8A049EF1CF088
:10388E004BEF1CF03CEF1CF0034A042A0150035C82
:10389E0002500458D8A056EF1CF058EF1CF038EF29
:1038AE001CF01200000E451A000E461A000E471AA2
:1038BE00800E481A41C001F042C002F043C003F02E
:1038CE0044C004F045C005F046C006F047C007F0FE
:1038DE0048C008F013EC0DF001C041F002C042F0F8
:1038EE0003C043F004C044F01200B0C05CF089EF96
:1038FE001CF0AFC0ACF05C0E0001AD6FB1C0AEF00D
:10390E00D8EC16F05CC0F6FF100EF76E0800F550FE
:10391E000009D8A495EF1CF097EF1CF080EF1CF077
:10392E00000E0001B06F000EAF6F12009398939AC5
:10393E0093969394939293908A988A9A330E9CECD2
:10394E0018F0320E9CEC18F0280E9CEC18F00C0EB1
:10395E009CEC18F0060E9CEC18F0010E9CEC18F086
:10396E00000E026E020E016E32EC1CF01200000E02
:10397E000E6E000E0D6ECDEF1CF00CC001F0026A43
:10398E000BC003F0AFEC1AF00D4A0E2A0D500924AD
:10399E00D96E0E500A20DA6EDF500C6E0C50D8A481
:1039AE00DBEF1CF0DDEF1CF0C4EF1CF0120001C0C9
:1039BE0005F002C006F0032A0304046E04C0F6FFED
:1039CE00100EF76E05C0D9FF06C0DAFF054A062AAB
:1039DE000800F5CFDFFFDF50D8A4F8EF1CF0FAEFA8
:1039EE001CF0E2EF1CF01200B40E5D6EB2C05EF081
:1039FE00000E626E000E616E000E696E000E686E35
:103A0E005E0E0001AF6FB3C0B0F05D0EB16F7CEC17
:103A1E001CF00001B2516124D96EDA6ADF6A12001D
:103A2E000150021003100410D8B420EF1DF022EF45
:103A3E001DF02AEF1DF0000E011A000E021A000EE4
:103A4E00031A800E041A01C001F002C002F003C076
:103A5E0003F004C004F01200056E0544E846FC0BAA
:103A6E000109C26E030EE82EFED70000C282C2B25A
:103A7E0043EF1DF045EF1DF03EEF1DF0C450046EF8
:103A8E00036AC3500324016E000E0420026E12005E
:103A9E0001500302F3CF05F0F4CF06F001500402FB
:103AAE00F350062602500302F350062605C001F01D
:103ABE0006C002F0120001EE00F0500EEE6AE806AB
:103ACE00FDE100EEE2F00D0EEE6AE806FDE1000EFD
:103ADE00F86E000155EF13F00E0EC16E800EC06E23
:043AEE0012001200B0
:00000001FF
