:100000001CEF00F006C0BEFF1200EA6A060EE96EA1
:10001000EF50D8B41AEF00F00F0E016E006A002EF8
:10002000FED7012EFBD78F0E006E002EFED70000EC
:10003000EF2EF2D750EF00F0F86AD09EC150C00BFF
:100040000F09C16E070EB46E0F0E936EFB0E946E09
:10005000000E0609CA6EFF0ECB6E94948B940C0EA4
:10006000BD6EB76AB66A056A938081A006D00A0E93
:10007000056E05C006F0C6DF10D0938481A406D0BB
:10008000C80E056E05C006F0BDDF07D0938681A6B9
:1000900004D0056A05C006F0B5DF640E066EB5D75C
:0400A000E3D703009F
:020000040030CA
:0E00000024CE3E1E0087A1000FC00FE00F406F
:00000001FF
;PIC18F4550
;CRC=D47E  CREATED="01-Jun-24 11:41"
